:100000000C9463000C948B000C948B000C94AB0349
:100010000C94AB030C94AB030C948B000C948B00EE
:100020000C948B000C948B000C948B000C948B0024
:100030000C948B000C948B000C948B000C948B0014
:100040000C9461030C948B000C942F030C94090303
:100050000C948B000C948B000C948B000C948B00F4
:100060000C948B000C948B0000000008000201002F
:100070000003040700000000000000000000000072
:10008000250028002B0000000000240027002A0083
:1000900000000000230026002900040404040404D6
:1000A0000404020202020202030303030303010227
:1000B00004081020408001020408102001020408F6
:1000C00010202504E10611241FBECFEFD8E0DEBFCB
:1000D000CDBF11E0A0E0B1E0EAE9FEE002C005908A
:1000E0000D92A633B107D9F722E0A6E3B1E001C033
:1000F0001D92A534B207E1F710E0C2E6D0E004C0DB
:100100002197FE010E943507C136D107C9F70E9429
:1001100007050C9440070C9400008DE890E00895CA
:10012000CF92DF92EF92FF920F931F93CF93DF93C3
:100130006C017A018B01C0E0D0E0CE15DF0589F0BB
:10014000D8016D918D01D601ED91FC910190F08166
:10015000E02DC6010995892B11F47E0102C021967C
:10016000ECCFC701DF91CF911F910F91FF90EF90DE
:10017000DF90CF900895FC01918D828D981761F0EA
:10018000828DDF01A80FB11D5D968C91928D9F5FCE
:100190009F73928F90E008958FEF9FEF0895FC0179
:1001A000918D828D981731F0828DE80FF11D858D2C
:1001B00090E008958FEF9FEF0895FC01918D228DBF
:1001C000892F90E0805C9F4F821B91098F73992744
:1001D000089589E891E00E94DD0021E0892B09F46F
:1001E00020E0822F0895FC01848DDF01A80FB11D4E
:1001F000A35ABF4F2C91848D90E001968F7399275D
:10020000848FA689B7892C93A089B1898C91806449
:100210008C93938D848D981306C00288F389E02D0A
:1002200080818F7D80830895EF92FF920F931F93BB
:10023000CF93DF93EC0181E0888F9B8D8C8D981399
:1002400005C0E889F989808185FD24C0F62E0B8DD3
:1002500010E00F5F1F4F0F731127E02E8C8DE812F7
:100260000CC00FB607FCFACFE889F989808185FFB9
:10027000F5CFCE010E94F300F1CF8B8DFE01E80F88
:10028000F11DE35AFF4FF0820B8FEA89FB898081D1
:10029000806207C0EE89FF896083E889F9898081DF
:1002A0008064808381E090E0DF91CF911F910F9176
:1002B000FF90EF900895CF93DF93EC01888D882312
:1002C000C9F0EA89FB89808185FD05C0A889B989C3
:1002D0008C9186FD0FC00FB607FCF5CF808185FF9E
:1002E000F2CFA889B9898C9185FFEDCFCE010E940C
:1002F000F300E7CFDF91CF91089580E090E0892B64
:1003000029F00E94E90081110C940000089590E00A
:10031000FC01E859FF4F3491FC01E255FF4F249155
:10032000FC01E656FF4FE491EE2309F43BC0332372
:1003300039F1333091F038F43130A9F0323001F531
:1003400084B58F7D12C0373091F03830A1F0343051
:10035000B9F4809180008F7D03C0809180008F77F9
:10036000809380000DC084B58F7784BD09C08091D3
:10037000B0008F7703C08091B0008F7D8093B00074
:10038000F0E0EE0FFF1FE458FF4FA591B4918FB737
:10039000F894EC91611103C020952E2301C02E2BFF
:1003A0002C938FBF08953FB7F89480917B01909173
:1003B0007C01A0917D01B0917E0126B5A89B05C06E
:1003C0002F3F19F00196A11DB11D3FBFBA2FA92FD4
:1003D000982F8827820F911DA11DB11DBC01CD0151
:1003E00042E0660F771F881F991F4A95D1F708953D
:1003F00020918101309182012817390771F4909181
:100400007F0180918001981741F0E0917F01F0E039
:10041000EA5CFE4F808190E008958FEF9FEF089592
:1004200008951F93CF93DF93DC015C962D913C914F
:100430005D972115310539F481E090E013969C9386
:100440008E9312973DC05196ED91FC915297509624
:100450009C915097892F80951FB75E964C915E971F
:1004600041FB772770F941FD6095F894408177232F
:1004700011F0492B01C048234083E9012197F1F78E
:1004800048E0508160FF02C0592B01C058235083BF
:10049000E9012197F1F76695415099F7772321F00B
:1004A00090818923808303C08081982B90831FBF14
:1004B0005C968D919C915D970197F1F721E030E07A
:1004C000C901DF91CF911F91089520918101309151
:1004D00082012817390771F48091800120917F01F2
:1004E00090E0805C9F4F821B910960E470E00E9465
:1004F000EB06089580E090E008952091810130910D
:10050000820128173907B9F490917F018091800109
:10051000981789F0E0917F01F0E0EA5CFE4F80815E
:1005200020917F0130E02F5F3F4F2F7333272093BF
:100530007F0190E008958FEF9FEF0895E091810192
:10054000F0918201E817F90769F4A389B4899C91B5
:100550008589809589238C93109282011092810164
:1005600081E0089580E00895009769F0FC01019012
:100570000020E9F73197AF01481B590BBC0189E80E
:1005800091E00C94900080E090E008958F929F920B
:10059000AF92BF920F931F93CF93DF93CDB7DEB788
:1005A000A1970FB6F894DEBF0FBECDBF19A242309F
:1005B00008F44AE08E010F5D1F4F842E912CA12C70
:1005C000B12CA50194010E94FF06E62FB901CA01D2
:1005D00001501109EA3014F4E05D01C0E95CD80172
:1005E000EC93232B242B252B61F7C8010E94B40226
:1005F000A1960FB6F894DEBF0FBECDBFDF91CF91AD
:100600001F910F91BF90AF909F908F9008950E947F
:100610003B071F920F920FB60F9211242F933F9317
:100620004F935F936F937F938F939F93AF93BF93FA
:10063000EF93FF9389E891E00E94F300FF91EF911F
:10064000BF91AF919F918F917F916F915F914F91EA
:100650003F912F910F900FBE0F901F9018951F92F2
:100660000F920FB60F9211242F938F939F93EF93B6
:10067000FF93E0919901F0919A018081E0919F01AF
:10068000F091A00182FD12C090818091A2018F5F44
:100690008F732091A301821751F0E091A201F0E045
:1006A000E757FE4F958F8093A20101C08081FF9193
:1006B000EF919F918F912F910F900FBE0F901F90F0
:1006C00018951F920F920FB60F9211242F933F93FC
:1006D0008F939F93AF93BF9380917701909178010F
:1006E000A0917901B0917A013091760123E0230F36
:1006F0002D3720F40196A11DB11D05C026E8230F5A
:100700000296A11DB11D20937601809377019093ED
:100710007801A0937901B0937A0180917B01909147
:100720007C01A0917D01B0917E010196A11DB11DBA
:1007300080937B0190937C01A0937D01B0937E0117
:10074000BF91AF919F918F913F912F910F900FBECD
:100750000F901F9018951F920F920FB60F921124B1
:100760002F933F934F935F936F937F938F939F93B9
:10077000AF93BF93EF93FF93E0918101F0918201DA
:10078000309709F451C0968DA685B785858591FF70
:1007900004C09C91892329F447C09C91892309F0C6
:1007A00043C0A389B4899C918589809589238C93C2
:1007B000868997890197F1F7608D718DA685B78538
:1007C000558538E020E0CB010197F1F7822F90E0CA
:1007D00095958795282F4C91452309F02068315035
:1007E00091F7868D81FD20958091800190E00196A2
:1007F0008F73992730917F01381749F0A0918001BC
:10080000B0E0AA5CBE4F2C938093800103C0868D1C
:100810008160868F828D938D0197F1F7A389B489CA
:100820009C918589892B8C93FF91EF91BF91AF911A
:100830009F918F917F916F915F914F913F912F91F8
:100840000F900FBE0F901F901895CF93DF931092CB
:100850008C0110928B0188EE93E0A0E0B0E08093D1
:100860008D0190938E01A0938F01B093900124E0AD
:1008700031E030938A012093890125EC30E03093F8
:1008800096012093950124EC30E030939801209359
:10089000970120EC30E030939A012093990121ECEC
:1008A00030E030939C0120939B0122EC30E03093A8
:1008B0009E0120939D0126EC30E03093A00120930F
:1008C0009F011092A2011092A3011092A401109214
:1008D000A501109229021092280280932A02909377
:1008E0002B02A0932C02B0932D0284E191E090930F
:1008F00027028093260210923D0210923C02109231
:100900003F0210923E021092410210924002109259
:10091000430210924202609144026E7F6D7F6093A9
:1009200044026695617081E068278FE00E9487012C
:10093000EDEBF0E02491E9EAF0E08491882399F06E
:1009400090E0880F991FFC01EA57FF4FA591B491E1
:10095000FC01E458FF4F859194918FB7F894EC9186
:10096000E22BEC938FBFEDEBF0E0E491E0933602E5
:10097000E9EAF0E0E491F0E0EE0FFF1FE458FF4FEA
:10098000859194919093380280933702EEEBF0E0DA
:100990002491EAEAF0E084918823C1F090E0880F86
:1009A000991FFC01EA57FF4FC591D491FC01E4580F
:1009B000FF4FA591B4919FB7F8948881E22FE095FD
:1009C0008E2388838C91E823EC939FBF809144020F
:1009D00081FD04C061E080E10E94870180E1809395
:1009E0003202EEEBF0E0E491E0933302EAEAF0E069
:1009F000E491F0E0EE0FFF1FE057FF4F85919491D7
:100A00009093350280933402DF91CF9108957894CA
:100A100084B5826084BD84B5816084BD85B5826003
:100A200085BD85B5816085BD80916E0081608093B4
:100A30006E0010928100809181008260809381001D
:100A4000809181008160809381008091800081602D
:100A5000809380008091B10084608093B100809188
:100A6000B00081608093B00080917A0084608093B0
:100A70007A0080917A00826080937A0080917A0077
:100A8000816080937A0080917A00806880937A00F8
:100A90001092C100E0919901F0919A0182E0808367
:100AA000E0919501F09196011082E0919701F0910B
:100AB00098018FEC80831092A101E0919D01F0914B
:100AC0009E0186E08083E0919B01F0919C018081F2
:100AD00080618083E0919B01F0919C01808188601E
:100AE0008083E0919B01F0919C01808180688083EC
:100AF000E0919B01F0919C0180818F7D8083109219
:100B000041021092400210923F0210923E02109257
:100B10003D0210923C028DE991E090934302809354
:100B2000420290913202963108F057C02DEB30E02E
:100B300030933D0220933C022BE931E030933F0299
:100B400020933E022CE231E0309341022093400298
:100B500020916800983050F031E09E3008F430E089
:100B600081E001C0880F3A95EAF701C084E0822B4A
:100B700080936800983038F09E3040F0963148F00D
:100B800020E030E008C02DE630E005C02BE630E084
:100B900002C02CE630E030933A02209339029830BC
:100BA00030F481E001C0880F9A95EAF70EC0292F32
:100BB00030E09E3018F42850310902C02E5031091F
:100BC00081E001C0880F2A95EAF780933B0280916B
:100BD0004202909143020197F1F780914002909177
:100BE0004102892B21F1809181019091820122E0C3
:100BF00086329207E1F0009711F00E949E028091E8
:100C000044028E7F809344021092800110927F01F3
:100C100086E292E09093820180938101E091390213
:100C2000F0913A02908180913B02892B808380E28F
:100C300091E00E94B40281E391E00E94B4028DE849
:100C400090E04C01990FAA08BB0886E292E00E944E
:100C50006502181619060CF0B1C086E292E00E94F7
:100C60007D0280938801682F70E080E090E040E191
:100C70000E94C60284E391E00E94B40286E292E000
:100C80000E947D0280938701682F70E080E090E0F1
:100C900040E10E94C60284E391E00E94B40286E231
:100CA00092E00E947D0280938601682F70E080E0D0
:100CB00090E040E10E94C60284E391E00E94B40209
:100CC00086E292E00E947D0280938501682F70E0A9
:100CD00080E090E040E10E94C60284E391E00E943F
:100CE000B40281E391E00E94B40240E1C501B40185
:100CF0000E94C60281E391E00E94B4021092870133
:100D00008091860190E0909384018093830142E07A
:100D100060E070E0CB010E94C60284E391E00E9493
:100D2000B4026091860170E080E090E042E00E94B1
:100D3000C60281E391E00E94B40260918301709148
:100D4000840180E090E042E00E94C60281E391E0ED
:100D50000E94B402609183017091840180E090E070
:100D60004AE00E94C60281E391E00E94B4020E9420
:100D7000D3012B013C0184EFC82EDD24D394E12C58
:100D8000F12C0E94D301DC01CB0184199509A6093D
:100D9000B709883E9340A105B10558F081E0C81A13
:100DA000D108E108F10828EE420E23E0521E611C32
:100DB000711CC114D104E104F10419F70E947D01F2
:100DC00044CF84E191E0909327028093260286E24B
:100DD00092E00C949E0297FB072E16F4009407D025
:100DE00077FD09D00E94210707FC05D03EF49095BD
:100DF00081959F4F0895709561957F4F0895A1E269
:100E00001A2EAA1BBB1BFD010DC0AA1FBB1FEE1F84
:100E1000FF1FA217B307E407F50720F0A21BB30BCF
:100E2000E40BF50B661F771F881F991F1A9469F74B
:100E300060957095809590959B01AC01BD01CF01A7
:100E40000895AA1BBB1B51E107C0AA1FBB1FA61711
:100E5000B70710F0A61BB70B881F991F5A95A9F763
:100E600080959095BC01CD010895EE0FFF1F059070
:100E7000F491E02D099481E090E0F8940C944007FF
:100E800010E0C2E6D0E004C0FE010E9435072196C2
:0A0E9000C336D107C9F7F894FFCF6D
:100E9A000000000014019000DD00BB00CF005B01E0
:100EAA00000000001102900065027D02F8011002A4
:100EBA0050727A65737A6574656D2073657475709E
:060ECA00000D0A007C008F
:107800000C94343C0C94513C0C94513C0C94513CE1
:107810000C94513C0C94513C0C94513C0C94513CB4
:107820000C94513C0C94513C0C94513C0C94513CA4
:107830000C94513C0C94513C0C94513C0C94513C94
:107840000C94513C0C94513C0C94513C0C94513C84
:107850000C94513C0C94513C0C94513C0C94513C74
:107860000C94513C0C94513C11241FBECFEFD8E036
:10787000DEBFCDBF11E0A0E0B1E0ECE9FFE702C060
:1078800005900D92A230B107D9F712E0A2E0B1E065
:1078900001C01D92AD30B107E1F70E942D3D0C945F
:1078A000CC3F0C94003C982F959595959595959582
:1078B000905D8F708A307CF0282F295A8091C0000B
:1078C00085FFFCCF9093C6008091C00085FFFCCF60
:1078D0002093C6000895282F205DF0CF982F809127
:1078E000C00085FFFCCF9093C6000895EF92FF92F1
:1078F0000F931F93EE24FF2487018091C00087FD22
:1079000017C00894E11CF11C011D111D81E4E8164B
:1079100082E4F8068FE0080780E0180770F3E09132
:107920000401F091050109958091C00087FFE9CF1E
:107930008091C6001F910F91FF90EF9008950E94D3
:10794000763C982F8091C00085FFFCCF9093C600B5
:1079500091362CF490330CF09053892F089597555D
:10796000892F08951F930E949F3C182F0E949F3CCF
:107970001295107F810F1F9108951F93182F882350
:1079800021F00E94763C1150E1F71F9108951F935A
:10799000182F0E94763C803249F0809103018F5F5E
:1079A000809303018530C1F01F9108958091C0003C
:1079B00085FFFCCF84E18093C6008091C00085FFE5
:1079C000FCCF1093C6008091C00085FFFCCF80E102
:1079D0008093C6001F910895E0910401F091050184
:1079E00009951F9108950E94763C803241F0809164
:1079F00003018F5F80930301853081F008958091AA
:107A0000C00085FFFCCF84E18093C6008091C00058
:107A100085FFFCCF80E18093C6000895E0910401CA
:107A2000F09105010995089540E951E08823A1F0FE
:107A30002D9A28EE33E0FA013197F1F721503040CA
:107A4000D1F72D9828EE33E0FA013197F1F7215064
:107A50003040D1F7815061F708953F924F925F9285
:107A60006F927F928F929F92AF92BF92CF92DF924E
:107A7000EF92FF920F931F93CF93DF93000080E16B
:107A80008093C4001092C50088E18093C10086E015
:107A90008093C2005098589A259A81E00E94143D24
:107AA00024E1F22E9EE1E92E85E9D82E0FE0C02ECA
:107AB00010E1B12EAA24A394B1E49B2EA6E58A2E50
:107AC000F2E57F2EE0E26E2E79E4572E63E5462E36
:107AD00050E5352E0E94763C8033B1F18133B9F107
:107AE000803409F46FC0813409F476C0823409F41B
:107AF00085C0853409F488C0803531F1823521F1A3
:107B0000813511F1853509F485C0863509F48DC0BC
:107B1000843609F496C0843709F403C1853709F423
:107B200072C1863709F466C0809103018F5F80932C
:107B30000301853079F6E0910401F0910501099582
:107B40000E94763C803351F60E94F33CC3CF0E94E2
:107B5000763C803249F78091C00085FFFCCFF092DF
:107B6000C6008091C00085FFFCCF9092C600809136
:107B7000C00085FFFCCF8092C6008091C00085FFC9
:107B8000FCCF7092C6008091C00085FFFCCF609250
:107B9000C6008091C00085FFFCCF5092C600809146
:107BA000C00085FFFCCF4092C6008091C00085FFD9
:107BB000FCCF3092C6008091C00085FFFCCFB09210
:107BC000C60088CF0E94763C863808F4BDCF0E945C
:107BD000763C0E94F33C7ECF0E94763C803809F4CC
:107BE0009CC0813809F40BC1823809F43CC1883942
:107BF00009F48FC080E00E94C73C6CCF84E10E94F2
:107C0000BD3C0E94F33C66CF85E00E94BD3C0E94D3
:107C1000F33C60CF0E94763C809306010E94763C44
:107C2000809307010E94F33C55CF0E94763C80333D
:107C300009F41DC183E00E94BD3C80E00E94C73C66
:107C400049CF0E94763C809309020E94763C809343
:107C5000080280910C028E7F80930C020E94763C79
:107C6000853409F415C18091080290910902892B8D
:107C700089F000E010E00E94763CF801E85FFE4FDA
:107C800080830F5F1F4F80910802909109020817AF
:107C9000190788F30E94763C803209F045CF809125
:107CA0000C0280FF01C16091060170910701660F0F
:107CB000771F7093070160930601A0910802B091AD
:107CC00009021097C9F0E8E0F1E09B01AD014E0F09
:107CD0005F1FF999FECF32BD21BD819180BDFA9A17
:107CE000F99A2F5F3F4FE417F50799F76A0F7B1F4B
:107CF00070930701609306018091C00085FFFCCF5F
:107D0000F092C6008091C00085FFFCCFB092C60003
:107D1000E1CE83E00E94C73CDDCE82E00E94C73CFA
:107D2000D9CE0E94763C809309020E94763C8093D3
:107D300008028091060190910701880F991F909386
:107D40000701809306010E94763C853409F4A6C0A1
:107D500080910C028E7F80930C020E94763C8032D0
:107D600009F0B8CE8091C00085FFFCCFF092C6002C
:107D7000609108027091090261157105B9F140E046
:107D800050E080910C02A82FA170B82FB27011C0E2
:107D9000BB2309F45CC0E0910601F0910701319624
:107DA000F0930701E09306014F5F5F4F46175707B7
:107DB000E8F4AA2369F3F999FECF209106013091E6
:107DC000070132BD21BDF89A90B58091C00085FFB2
:107DD000FCCF9093C6002F5F3F4F30930701209355
:107DE00006014F5F5F4F4617570718F38091C00099
:107DF00085FDE5CE8091C00085FFF8CFE0CE81E023
:107E00000E94C73C67CE0E94763C803209F08CCE3F
:107E10008091C00085FFFCCFF092C6008091C00029
:107E200085FFFCCFE092C6008091C00085FFFCCFAB
:107E3000D092C6008091C00085FFFCCFC092C600E2
:107E40008091C00085FFFCCFB092C60043CEE09188
:107E50000601F091070194918091C00085FFFCCF4D
:107E60009093C6009CCF80E10E94C73C33CE0E9415
:107E7000763C0E94763C182F0E94763C112309F430
:107E800083C0113009F484C08FE00E94C73C22CE29
:107E900080910C02816080930C02E5CE80910C02EF
:107EA000816080930C0259CF809107018823880F4D
:107EB000880B8A2180930B02809106019091070123
:107EC000880F991F90930701809306018091080203
:107ED00080FF09C080910802909109020196909359
:107EE000090280930802F894F999FECF1127E091D6
:107EF0000601F0910701C8E0D1E08091080290915D
:107F00000902103091F40091570001700130D9F34B
:107F100003E000935700E89500915700017001308D
:107F2000D9F301E100935700E89509901990009169
:107F3000570001700130D9F301E000935700E89534
:107F40001395103498F011270091570001700130FB
:107F5000D9F305E000935700E895009157000170B0
:107F60000130D9F301E100935700E895329602976A
:107F700009F0C7CF103011F00296E5CF112480919F
:107F8000C00085FFB9CEBCCE8EE10E94C73CA2CD19
:0C7F900085E90E94C73C9ECDF894FFCF0D
:027F9C00800063
:040000030000780081
:00000001FF
