:100000000C9463000C948B000C948B000C9475037F
:100010000C9475030C9475030C948B000C948B005A
:100020000C948B000C948B000C948B000C948B0024
:100030000C948B000C948B000C948B000C948B0014
:100040000C942B030C948B000C94F9020C94D302A7
:100050000C948B000C948B000C948B000C948B00F4
:100060000C948B000C948B0000000008000201002F
:100070000003040700000000000000000000000072
:10008000250028002B0000000000240027002A0083
:1000900000000000230026002900040404040404D6
:1000A0000404020202020202030303030303010227
:1000B00004081020408001020408102001020408F6
:1000C0001020EF03640611241FBECFEFD8E0DEBF7F
:1000D000CDBF11E0A0E0B1E0ECE5FDE002C005908D
:1000E0000D92A638B107D9F722E0A6E8B1E001C029
:1000F0001D92A139B207E1F710E0C2E6D0E004C0DA
:100100002197FE010E949606C136D107C9F70E94C9
:10011000D1040C94A1060C940000CF92DF92EF92D0
:10012000FF920F931F93CF93DF936C017A018B01A2
:10013000C0E0D0E0CE15DF0589F0D8016D918D01CA
:10014000D601ED91FC910190F081E02DC601099559
:10015000892B11F47E0102C02196ECCFC701DF91FB
:10016000CF911F910F91FF90EF90DF90CF90089566
:10017000FC01918D828D981761F0828DDF01A80FAF
:10018000B11D5D968C91928D9F5F9F73928F90E0D1
:1001900008958FEF9FEF0895FC01918D828D981740
:1001A00031F0828DE80FF11D858D90E008958FEF7D
:1001B0009FEF0895FC01918D228D892F90E0805C46
:1001C0009F4F821B91098F739927089585ED91E0C8
:1001D0000E94DA0021E0892B09F420E0822F0895A3
:1001E000FC01848DDF01A80FB11DA35ABF4F2C91D4
:1001F000848D90E001968F739927848FA689B789A3
:100200002C93A089B1898C9180648C93938D848D7B
:10021000981306C00288F389E02D80818F7D80834A
:100220000895EF92FF920F931F93CF93DF93EC010A
:1002300081E0888F9B8D8C8D981305C0E889F989A2
:10024000808185FD24C0F62E0B8D10E00F5F1F4FBF
:100250000F731127E02E8C8DE8120CC00FB607FC2F
:10026000FACFE889F989808185FFF5CFCE010E9418
:10027000F000F1CF8B8DFE01E80FF11DE35AFF4F27
:10028000F0820B8FEA89FB898081806207C0EE894A
:10029000FF896083E889F98980818064808381E0B7
:1002A00090E0DF91CF911F910F91FF90EF90089513
:1002B000CF93DF93EC01888D8823C9F0EA89FB890D
:1002C000808185FD05C0A889B9898C9186FD0FC004
:1002D0000FB607FCF5CF808185FFF2CFA889B989D9
:1002E0008C9185FFEDCFCE010E94F000E7CFDF912A
:1002F000CF91089580E090E0892B29F00E94E600DC
:1003000081110C940000089590E0FC01E859FF4F22
:100310003491FC01E255FF4F2491FC01E656FF4F5A
:10032000E491EE2309F43BC0332339F1333091F0EB
:1003300038F43130A9F0323001F584B58F7D12C028
:10034000373091F03830A1F03430B9F4809180002A
:100350008F7D03C0809180008F77809380000DC0D7
:1003600084B58F7784BD09C08091B0008F7703C0BA
:100370008091B0008F7D8093B000F0E0EE0FFF1F02
:10038000E458FF4FA591B4918FB7F894EC916111A7
:1003900003C020952E2301C02E2B2C938FBF0895D0
:1003A0003FB7F8948091CB019091CC01A091CD0101
:1003B000B091CE0126B5A89B05C02F3F19F001963C
:1003C000A11DB11D3FBFBA2FA92F982F8827820FDB
:1003D000911DA11DB11DBC01CD0142E0660F771F2B
:1003E000881F991F4A95D1F708952091D101309126
:1003F000D2012817390771F49091CF018091D00173
:10040000981741F0E091CF01F0E0EA57FE4F80816C
:1004100090E008958FEF9FEF089508951F93CF9375
:10042000DF93DC015C962D913C915D9721153105A0
:1004300039F481E090E013969C938E9312973DC01F
:100440005196ED91FC91529750969C915097892F1F
:1004500080951FB75E964C915E9741FB772770F9A8
:1004600041FD6095F8944081772311F0492B01C03C
:1004700048234083E9012197F1F748E0508160FF6C
:1004800002C0592B01C058235083E9012197F1F78D
:100490006695415099F7772321F0908189238083D5
:1004A00003C08081982B90831FBF5C968D919C9197
:1004B0005D970197F1F721E030E0C901DF91CF911D
:1004C0001F9108952091D1013091D2012817390749
:1004D00071F48091D0012091CF0190E0805C9F4F1A
:1004E000821B910960E470E00E946E06089580E02E
:1004F00090E008952091D1013091D2012817390759
:10050000B9F49091CF018091D001981789F0E091D2
:10051000CF01F0E0EA57FE4F80812091CF0130E01B
:100520002F5F3F4F2F7333272093CF0190E0089523
:100530008FEF9FEF0895E091D101F091D201E8177C
:10054000F90769F4A389B4899C91858980958923E9
:100550008C931092D2011092D10181E0089580E035
:100560000895009769F0FC0101900020E9F73197A8
:10057000AF01481B590BBC0185ED91E00C948D0037
:1005800080E090E00895CF93DF930E94B102EC01E8
:1005900080E291E00E94B1028C0F9D1FDF91CF910C
:1005A00008950E949C061F920F920FB60F9211247D
:1005B0002F933F934F935F936F937F938F939F936B
:1005C000AF93BF93EF93FF9385ED91E00E94F0000E
:1005D000FF91EF91BF91AF919F918F917F916F911B
:1005E0005F914F913F912F910F900FBE0F901F90F1
:1005F00018951F920F920FB60F9211242F938F937D
:100600009F93EF93FF93E091E501F091E6018081E4
:10061000E091EB01F091EC0182FD12C0908180919C
:10062000EE018F5F8F732091EF01821751F0E091FF
:10063000EE01F0E0EB52FE4F958F8093EE0101C08A
:100640008081FF91EF919F918F912F910F900FBE1D
:100650000F901F9018951F920F920FB60F921124B2
:100660002F933F938F939F93AF93BF938091C70135
:100670009091C801A091C901B091CA013091C60101
:1006800023E0230F2D3720F40196A11DB11D05C0D5
:1006900026E8230F0296A11DB11D2093C601809369
:1006A000C7019093C801A093C901B093CA0180917A
:1006B000CB019091CC01A091CD01B091CE010196DA
:1006C000A11DB11D8093CB019093CC01A093CD01CE
:1006D000B093CE01BF91AF919F918F913F912F9198
:1006E0000F900FBE0F901F9018951F920F920FB68C
:1006F0000F9211242F933F934F935F936F937F93A8
:100700008F939F93AF93BF93EF93FF93E091D101AA
:10071000F091D201309709F451C0968DA685B78526
:10072000858591FF04C09C91892329F447C09C9141
:10073000892309F043C0A389B4899C918589809558
:1007400089238C93868997890197F1F7608D718D44
:10075000A685B785558538E020E0CB010197F1F7F4
:10076000822F90E095958795282F4C91452309F08D
:100770002068315091F7868D81FD20958091D001C0
:1007800090E001968F7399273091CF01381749F087
:10079000A091D001B0E0AA57BE4F2C938093D00116
:1007A00003C0868D8160868F828D938D0197F1F7CE
:1007B000A389B4899C918589892B8C93FF91EF91B2
:1007C000BF91AF919F918F917F916F915F914F9169
:1007D0003F912F910F900FBE0F901F901895CF93C0
:1007E000DF931092D8011092D70188EE93E0A0E039
:1007F000B0E08093D9019093DA01A093DB01B0932C
:10080000DC0124E031E03093D6012093D50125ECC2
:1008100030E03093E2012093E10124EC30E03093AA
:10082000E4012093E30120EC30E03093E6012093D3
:10083000E50121EC30E03093E8012093E70122EC60
:1008400030E03093EA012093E90126EC30E0309368
:10085000EC012093EB011092EE011092EF01109247
:10086000F0011092F10110927502109274028093BF
:10087000760290937702A0937802B093790284E194
:1008800091E0909373028093720210928902109209
:10089000880210928B0210928A0210928D0210929E
:1008A0008C0210928F0210928E02609190026E7FE5
:1008B0006D7F609390026695617081E068278FE09C
:1008C0000E948401EDEBF0E02491E9EAF0E08491EC
:1008D000882399F090E0880F991FFC01EA57FF4F99
:1008E000A591B491FC01E458FF4F859194918FB785
:1008F000F894EC91E22BEC938FBFEDEBF0E0E491F8
:10090000E0938202E9EAF0E0E491F0E0EE0FFF1FED
:10091000E458FF4F859194919093840280938302D1
:10092000EEEBF0E02491EAEAF0E084918823C1F054
:1009300090E0880F991FFC01EA57FF4FC591D491B1
:10094000FC01E458FF4FA591B4919FB7F8948881BA
:10095000E22FE0958E2388838C91E823EC939FBF50
:100960008091900281FD04C061E080E10E948401D9
:1009700080E180937E02EEEBF0E0E491E0937F0271
:10098000EAEAF0E0E491F0E0EE0FFF1FE057FF4FDE
:10099000859194919093810280938002DF91CF9111
:1009A0000895CF93DF93CDB7DEB7A1970FB6F89434
:1009B000DEBF0FBECDBF789484B5826084BD84B5A0
:1009C000816084BD85B5826085BD85B5816085BD4A
:1009D00080916E00816080936E0010928100809102
:1009E000810082608093810080918100816080938A
:1009F0008100809180008160809380008091B100AF
:100A000084608093B1008091B00081608093B000D9
:100A100080917A00846080937A0080917A0082606D
:100A200080937A0080917A00816080937A0080912F
:100A30007A00806880937A001092C100E091E5010D
:100A4000F091E60182E08083E091E101F091E20122
:100A50001082E091E301F091E4018FEC8083109229
:100A6000ED01E091E901F091EA0186E08083E091F7
:100A7000E701F091E801808180618083E091E701E6
:100A8000F091E801808188608083E091E701F09136
:100A9000E801808180688083E091E701F091E801BE
:100AA00080818F7D808310928D0210928C02109233
:100AB0008B0210928A0210928902109288028DE9AC
:100AC00091E090938F0280938E0290917E029631F6
:100AD00008F057C02DEB30E0309389022093880254
:100AE0002BE931E030938B0220938A022CE231E033
:100AF00030938D0220938C0220916800983050F042
:100B000031E09E3008F430E081E001C0880F3A9572
:100B1000EAF701C084E0822B80936800983038F0B7
:100B20009E3040F0963148F020E030E008C02DE6DD
:100B300030E005C02BE630E002C02CE630E0309318
:100B4000860220938502983030F481E001C0880F3E
:100B50009A95EAF70EC0292F30E09E3018F42850FD
:100B6000310902C02E50310981E001C0880F2A9559
:100B7000EAF78093870280918E0290918F0201970D
:100B8000F1F780918C0290918D02892B21F1809157
:100B9000D1019091D20122E082379207E1F00097D3
:100BA00011F00E949B02809190028E7F80939002B0
:100BB0001092D0011092CF0182E792E09093D2017F
:100BC0008093D101E0918502F0918602908180911D
:100BD0008702892B808383E291E00E94C30282E72F
:100BE00092E00E946202181619060CF03FC084E3DE
:100BF00091E00E94C30282E792E00E947A02909301
:100C0000D4018093D30187E491E00E94C302409114
:100C1000D3015091D401052E000C660B770B19A25D
:100C2000CE0181968A019B010F701127222733275D
:100C3000E4E07695679557954795EA95D1F7019742
:100C40000A3011052105310510F4005D01C0095C71
:100C5000FC010083411551056105710519F70E94DA
:100C6000B10280E291E00E94B10204C084E691E00A
:100C70000E94C3020E94D0014B015C0184EFC82E88
:100C8000DD24D394E12CF12C0E94D001DC01CB01B6
:100C900088199909AA09BB09883E9340A105B105A5
:100CA00058F0F1E0CF1AD108E108F10828EE820EE1
:100CB00023E0921EA11CB11CC114D104E104F10473
:100CC00019F70E947A018BCF84E191E0909373022F
:100CD0008093720282E792E00C949B0297FB072EAE
:100CE00016F4009407D077FD09D00E94820607FC15
:100CF00005D03EF4909581959F4F0895709561952C
:100D00007F4F0895AA1BBB1B51E107C0AA1FBB1F41
:100D1000A617B70710F0A61BB70B881F991F5A9587
:100D2000A9F780959095BC01CD010895EE0FFF1FA6
:100D30000590F491E02D099481E090E0F8940C94F2
:100D4000A10610E0C2E6D0E004C0FE010E949606B3
:0C0D50002196C336D107C9F7F894FFCFF5
:100D5C000000000011018D00DA00B800CC00580131
:100D6C00000000000E028D0062027A02F5010D02F5
:100D7C000D0A0050727A65737A6574656D2073651F
:100D8C00747570006D7953657269616C2061766160
:100D9C00696C61626C6500534B6F6E637A796C653C
:100DAC006D206F64626965726163206D7953657241
:100DBC0069616C004E6965207A61696E69636A6F5E
:100DCC0077616C656D20706F727475206D795365E9
:060DDC007269616C000069
:00000001FF
