:100000000C9463000C948B000C948B000C94B6033E
:100010000C94B6030C94B6030C948B000C948B00D8
:100020000C948B000C948B000C948B000C948B0024
:100030000C948B000C948B000C948B000C948B0014
:100040000C946C030C948B000C943A030C941403E2
:100050000C948B000C948B000C948B000C948B00F4
:100060000C948B000C948B0000000008000201002F
:100070000003040700000000000000000000000072
:10008000250028002B0000000000240027002A0083
:1000900000000000230026002900040404040404D6
:1000A0000404020202020202030303030303010227
:1000B00004081020408001020408102001020408F6
:1000C00010203004AB0611241FBECFEFD8E0DEBFF6
:1000D000CDBF11E0A0E0B1E0EEE2FEE002C005908D
:1000E0000D92AA36B107D9F722E0AAE6B1E001C025
:1000F0001D92AB37B207E1F710E0C2E6D0E004C0D2
:100100002197FE010E94FF06C136D107C9F70E9460
:1001100012050C940A070C940000CF92DF92EF9224
:10012000FF920F931F93CF93DF936C017A018B01A2
:10013000C0E0D0E0CE15DF0589F0D8016D918D01CA
:10014000D601ED91FC910190F081E02DC601099559
:10015000892B11F47E0102C02196ECCFC701DF91FB
:10016000CF911F910F91FF90EF90DF90CF90089566
:10017000FC01918D828D981761F0828DDF01A80FAF
:10018000B11D5D968C91928D9F5F9F73928F90E0D1
:1001900008958FEF9FEF0895FC01918D828D981740
:1001A00031F0828DE80FF11D858D90E008958FEF7D
:1001B0009FEF0895FC01918D228D892F90E0805C46
:1001C0009F4F821B91098F73992708958FEB91E0C0
:1001D0000E94DA0021E0892B09F420E0822F0895A3
:1001E000FC01848DDF01A80FB11DA35ABF4F2C91D4
:1001F000848D90E001968F739927848FA689B789A3
:100200002C93A089B1898C9180648C93938D848D7B
:10021000981306C00288F389E02D80818F7D80834A
:100220000895EF92FF920F931F93CF93DF93EC010A
:1002300081E0888F9B8D8C8D981305C0E889F989A2
:10024000808185FD24C0F62E0B8D10E00F5F1F4FBF
:100250000F731127E02E8C8DE8120CC00FB607FC2F
:10026000FACFE889F989808185FFF5CFCE010E9418
:10027000F000F1CF8B8DFE01E80FF11DE35AFF4F27
:10028000F0820B8FEA89FB898081806207C0EE894A
:10029000FF896083E889F98980818064808381E0B7
:1002A00090E0DF91CF911F910F91FF90EF90089513
:1002B000CF93DF93EC01888D8823C9F0EA89FB890D
:1002C000808185FD05C0A889B9898C9186FD0FC004
:1002D0000FB607FCF5CF808185FFF2CFA889B989D9
:1002E0008C9185FFEDCFCE010E94F000E7CFDF912A
:1002F000CF91089580E090E0892B29F00E94E600DC
:1003000081110C940000089590E0FC01E859FF4F22
:100310003491FC01E255FF4F2491FC01E656FF4F5A
:10032000E491EE2309F43BC0332339F1333091F0EB
:1003300038F43130A9F0323001F584B58F7D12C028
:10034000373091F03830A1F03430B9F4809180002A
:100350008F7D03C0809180008F77809380000DC0D7
:1003600084B58F7784BD09C08091B0008F7703C0BA
:100370008091B0008F7D8093B000F0E0EE0FFF1F02
:10038000E458FF4FA591B4918FB7F894EC916111A7
:1003900003C020952E2301C02E2B2C938FBF0895D0
:1003A0003FB7F8948091AF019091B001A091B10155
:1003B000B091B20126B5A89B05C02F3F19F0019658
:1003C000A11DB11D3FBFBA2FA92F982F8827820FDB
:1003D000911DA11DB11DBC01CD0142E0660F771F2B
:1003E000881F991F4A95D1F708952091B501309142
:1003F000B6012817390771F49091B3018091B401C7
:10040000981741F0E091B301F0E0E659FE4F80818A
:1004100090E008958FEF9FEF089508951F93CF9375
:10042000DF93DC015C962D913C915D9721153105A0
:1004300039F481E090E013969C938E9312973DC01F
:100440005196ED91FC91529750969C915097892F1F
:1004500080951FB75E964C915E9741FB772770F9A8
:1004600041FD6095F8944081772311F0492B01C03C
:1004700048234083E9012197F1F748E0508160FF6C
:1004800002C0592B01C058235083E9012197F1F78D
:100490006695415099F7772321F0908189238083D5
:1004A00003C08081982B90831FBF5C968D919C9197
:1004B0005D970197F1F721E030E0C901DF91CF911D
:1004C0001F9108952091B5013091B6012817390781
:1004D00071F48091B4012091B30190E0805C9F4F52
:1004E000821B910960E470E00E94B506089580E0E7
:1004F00090E008952091B5013091B6012817390791
:10050000B9F49091B3018091B401981789F0E0910A
:10051000B301F0E0E659FE4F80812091B30130E055
:100520002F5F3F4F2F7333272093B30190E008953F
:100530008FEF9FEF0895E091B501F091B601E817B4
:10054000F90769F4A389B4899C91858980958923E9
:100550008C931092B6011092B50181E0089580E06D
:100560000895009769F0FC0101900020E9F73197A8
:10057000AF01481B590BBC018FEB91E00C948D002F
:1005800080E090E00895CF93DF930E94B102EC01E8
:1005900080E291E00E94B1028C0F9D1FDF91CF910C
:1005A00008958F929F92AF92BF920F931F93CF9314
:1005B000DF93CDB7DEB7A1970FB6F894DEBF0FBEBD
:1005C000CDBF19A2423008F44AE08E010F5D1F4FE3
:1005D000842E912CA12CB12CA50194010E94C90656
:1005E000E62FB901CA0101501109EA3014F4E05DA7
:1005F00001C0E95CD801EC93232B242B252B61F758
:10060000C8010E94B102A1960FB6F894DEBF0FBEDA
:10061000CDBFDF91CF911F910F91BF90AF909F9071
:100620008F9008950E9405071F920F920FB60F92A8
:1006300011242F933F934F935F936F937F938F93E7
:100640009F93AF93BF93EF93FF938FEB91E00E9443
:10065000F000FF91EF91BF91AF919F918F917F91AA
:100660006F915F914F913F912F910F900FBE0F901F
:100670001F9018951F920F920FB60F9211242F936F
:100680008F939F93EF93FF93E091CF01F091D0016F
:100690008081E091D501F091D60182FD12C0908158
:1006A0008091D8018F5F8F732091D901821751F00B
:1006B000E091D801F0E0E154FE4F958F8093D8018E
:1006C00001C08081FF91EF919F918F912F910F90A9
:1006D0000FBE0F901F9018951F920F920FB60F929A
:1006E00011242F933F938F939F93AF93BF93809148
:1006F000AB019091AC01A091AD01B091AE013091F0
:10070000AA0123E0230F2D3720F40196A11DB11D6E
:1007100005C026E8230F0296A11DB11D2093AA0152
:100720008093AB019093AC01A093AD01B093AE0167
:100730008091AF019091B001A091B101B091B2014F
:100740000196A11DB11D8093AF019093B001A093BC
:10075000B101B093B201BF91AF919F918F913F9141
:100760002F910F900FBE0F901F9018951F920F9210
:100770000FB60F9211242F933F934F935F936F9374
:100780007F938F939F93AF93BF93EF93FF93E091EA
:10079000B501F091B601309709F451C0968DA68548
:1007A000B785858591FF04C09C91892329F447C0B2
:1007B0009C91892309F043C0A389B4899C918589C0
:1007C000809589238C93868997890197F1F7608DAD
:1007D000718DA685B785558538E020E0CB0101975E
:1007E000F1F7822F90E095958795282F4C9145231E
:1007F00009F02068315091F7868D81FD2095809118
:10080000B40190E001968F7399273091B3013817A6
:1008100049F0A091B401B0E0A659BE4F2C9380934B
:10082000B40103C0868D8160868F828D938D019780
:10083000F1F7A389B4899C918589892B8C93FF91C9
:10084000EF91BF91AF919F918F917F916F915F9148
:100850004F913F912F910F900FBE0F901F901895C1
:10086000CF93DF931092C2011092C10188EE93E002
:10087000A0E0B0E08093C3019093C401A093C501B0
:10088000B093C60124E031E03093C0012093BF0152
:1008900025EC30E03093CC012093CB0124EC30E008
:1008A0003093CE012093CD0120EC30E03093D00185
:1008B0002093CF0121EC30E03093D2012093D1017D
:1008C00022EC30E03093D4012093D30126EC30E0C9
:1008D0003093D6012093D5011092D8011092D901FE
:1008E0001092DA011092DB0110925F0210925E0208
:1008F0008093600290936102A0936202B0936302BE
:1009000084E191E090935D0280935C021092730207
:100910001092720210927502109274021092770275
:1009200010927602109279021092780260917A0207
:100930006E7F6D7F60937A026695617081E06827B3
:100940008FE00E948401EDEBF0E02491E9EAF0E011
:100950008491882399F090E0880F991FFC01EA5751
:10096000FF4FA591B491FC01E458FF4F85919491FC
:100970008FB7F894EC91E22BEC938FBFEDEBF0E0A6
:10098000E491E0936C02E9EAF0E0E491F0E0EE0F2C
:10099000FF1FE458FF4F8591949190936E028093CE
:1009A0006D02EEEBF0E02491EAEAF0E08491882316
:1009B000C1F090E0880F991FFC01EA57FF4FC591E5
:1009C000D491FC01E458FF4FA591B4919FB7F894DE
:1009D0008881E22FE0958E2388838C91E823EC9325
:1009E0009FBF80917A0281FD04C061E080E10E9496
:1009F000840180E180936802EEEBF0E0E491E09303
:100A00006902EAEAF0E0E491F0E0EE0FFF1FE05740
:100A1000FF4F8591949190936B0280936A02DF91CE
:100A2000CF910895789484B5826084BD84B5816047
:100A300084BD85B5826085BD85B5816085BD8091A9
:100A40006E00816080936E00109281008091810021
:100A50008260809381008091810081608093810019
:100A6000809180008160809380008091B1008460DB
:100A70008093B1008091B00081608093B00080913C
:100A80007A00846080937A0080917A0082608093FB
:100A90007A0080917A00816080937A0080917A0058
:100AA000806880937A001092C100E091CF01F091AC
:100AB000D00182E08083E091CB01F091CC011082E3
:100AC000E091CD01F091CE018FEC80831092D7019F
:100AD000E091D301F091D40186E08083E091D101CF
:100AE000F091D201808180618083E091D101F09109
:100AF000D201808188608083E091D101F091D201A0
:100B0000808180688083E091D101F091D201808161
:100B10008F7D808310927702109276021092750278
:100B20001092740210927302109272028DE991E099
:100B3000909379028093780290916802963108F040
:100B400057C02DEB30E030937302209372022BE9F3
:100B500031E030937502209374022CE231E030933F
:100B600077022093760220916800983050F031E0AF
:100B70009E3008F430E081E001C0880F3A95EAF732
:100B800001C084E0822B80936800983038F09E305A
:100B900040F0963148F020E030E008C02DE630E02B
:100BA00005C02BE630E002C02CE630E03093700246
:100BB00020936F02983030F481E001C0880F9A953D
:100BC000EAF70EC0292F30E09E3018F42850310982
:100BD00002C02E50310981E001C0880F2A95EAF742
:100BE0008093710280917802909179020197F1F7D8
:100BF0008091760290917702892B21F18091B50145
:100C00009091B60122E08C359207E1F0009711F047
:100C10000E949B0280917A028E7F80937A021092CA
:100C2000B4011092B3018CE592E09093B6018093E9
:100C3000B501E0916F02F091700290818091710294
:100C4000892B808383E291E00E94C3028CE592E0CD
:100C50000E946202181619060CF04FC084E391E05E
:100C60000E94C3028CE592E00E947A029093BE013A
:100C70008093BD01BC01990F880B990B40E10E9444
:100C8000D10287E491E00E94B1028CE592E00E94DB
:100C90007A029093BC018093BB01BC01990F880B31
:100CA000990B40E10E94D10287E491E00E94B102D9
:100CB0008CE592E00E947A029093BA018093B90188
:100CC000BC01990F880B990B40E10E94D10287E487
:100CD00091E00E94B1028CE592E00E947A0290932A
:100CE000B8018093B701BC01990F880B990B40E1C3
:100CF0000E94D10287E491E002C089E491E00E9461
:100D0000C3020E94D0014B015C0184EFC82EDD2498
:100D1000D394E12CF12C0E94D001DC01CB01881985
:100D20009909AA09BB09883E9340A105B10558F06D
:100D300081E0C81AD108E108F10828EE820E23E00C
:100D4000921EA11CB11CC114D104E104F10419F7D5
:100D50000E947A017BCF84E191E090935D028093C1
:100D60005C028CE592E00C949B0297FB072E16F434
:100D7000009407D077FD09D00E94EB0607FC05D050
:100D80003EF4909581959F4F0895709561957F4FA2
:100D90000895A1E21A2EAA1BBB1BFD010DC0AA1FBC
:100DA000BB1FEE1FFF1FA217B307E407F50720F0D4
:100DB000A21BB30BE40BF50B661F771F881F991F4F
:100DC0001A9469F760957095809590959B01AC0198
:100DD000BD01CF010895AA1BBB1B51E107C0AA1F8B
:100DE000BB1FA617B70710F0A61BB70B881F991FCC
:100DF0005A95A9F780959095BC01CD010895EE0F05
:100E0000FF1F0590F491E02D099481E090E0F894A3
:100E10000C940A0710E0C2E6D0E004C0FE010E9474
:0E0E2000FF062196C336D107C9F7F894FFCF1D
:100E2E000000000011018D00DA00B800CC0058015E
:100E3E00000000000E028D0062027A02F5010D0222
:100E4E000D0A0050727A65737A6574656D2073654C
:100E5E00747570006D7953657269616C206176618D
:100E6E00696C61626C65007C004E6965207A61690F
:100E7E006E69636A6F77616C656D20706F727475E1
:0A0E8E00206D7953657269616C00F4
:00000001FF
