:100000000C9462000C948A000C948A000C948A0070
:100010000C948A000C948A000C948A000C948A0038
:100020000C948A000C948A000C948A000C948A0028
:100030000C948A000C948A000C948A000C948A0018
:100040000C948A020C948A000C9458020C9432028C
:100050000C948A000C948A000C948A000C948A00F8
:100060000C948A000C948A000000000024002700F1
:100070002A0000000000250028002B0000000008D6
:10008000000201000003040700000000000000005F
:1000900000000000230026002900040404040404D6
:1000A0000404020202020202030303030303010227
:1000B00004081020408001020408102001020408F6
:1000C00010206B0411241FBECFEFD8E0DEBFCDBFE0
:1000D00011E0A0E0B1E0E6ECFCE002C005900D927A
:1000E000A431B107D9F721E0A4E1B1E001C01D922C
:1000F000A23CB207E1F710E0C2E6D0E004C02197CD
:10010000FE010E94BA04C136D107C9F70E94190343
:100110000C9461060C940000CF92DF92EF92FF9254
:100120000F931F93CF93DF936C017A018B01C0E093
:10013000D0E0CE15DF0589F0D8016D918D01D60193
:10014000ED91FC910190F081E02DC6010995892B7C
:1001500011F47E0102C02196ECCFC701DF91CF914F
:100160001F910F91FF90EF90DF90CF900895FC01C9
:10017000918D828D981761F0828DDF01A80FB11DDE
:100180005D968C91928D9F5F9F73928F90E0089502
:100190008FEF9FEF0895FC01918D828D981731F0BC
:1001A000828DE80FF11D858D90E008958FEF9FEF10
:1001B0000895FC01918D228D892F90E0805C9F4FE6
:1001C000821B91098F739927089581E291E00E9423
:1001D000D90021E0892B09F420E0822F0895FC0149
:1001E000848DDF01A80FB11DA35ABF4F2C91848DC0
:1001F00090E001968F739927848FA689B7892C93F5
:10020000A089B1898C9180648C93938D848D98138F
:1002100006C00288F389E02D80818F7D8083089558
:10022000EF92FF920F931F93CF93DF93EC0181E046
:10023000888F9B8D8C8D981305C0E889F989808102
:1002400085FD24C0F62E0B8D10E00F5F1F4F0F733E
:100250001127E02E8C8DE8120CC00FB607FCFACFE8
:10026000E889F989808185FFF5CFCE010E94EF00F2
:10027000F1CF8B8DFE01E80FF11DE35AFF4FF082A5
:100280000B8FEA89FB898081806207C0EE89FF8934
:100290006083E889F98980818064808381E090E0CF
:1002A000DF91CF911F910F91FF90EF900895CF9321
:1002B000DF93EC01888D8823C9F0EA89FB8980816E
:1002C00085FD05C0A889B9898C9186FD0FC00FB640
:1002D00007FCF5CF808185FFF2CFA889B9898C9181
:1002E00085FFEDCFCE010E94EF00E7CFDF91CF91E8
:1002F000089580E090E0892B29F00E94E5008111AB
:100300000C940000089590E0FC01E458FF4F3491F4
:10031000FC01E255FF4F2491FC01E656FF4FE491AA
:10032000EE2309F43BC0332339F1333091F038F434
:100330003130A9F0323001F584B58F7D12C03730ED
:1003400091F03830A1F03430B9F4809180008F7D85
:1003500003C0809180008F77809380000DC084B5AA
:100360008F7784BD09C08091B0008F7703C08091E2
:10037000B0008F7D8093B000F0E0EE0FFF1FEE58CD
:10038000FF4FA591B4918FB7F894EC91611103C020
:1003900020952E2301C02E2B2C938FBF0895CF9331
:1003A000DF9390E0FC01E255FF4F2491FC01E656FB
:1003B000FF4F8491882361F190E0880F991FFC0121
:1003C000E859FF4FC591D491FC01EE58FF4FA5911C
:1003D000B491611109C09FB7F89488812095822358
:1003E0008883EC912E230BC0623061F49FB7F894A0
:1003F0003881822F809583238883EC912E2B2C9338
:100400009FBF06C08FB7F894E8812E2B28838FBF3B
:10041000DF91CF9108953FB7F894809119019091A1
:100420001A01A0911B01B0911C0126B5A89B05C023
:100430002F3F19F00196A11DB11D3FBFBA2FA92F63
:10044000982F8827820F911DA11DB11DBC01CD01E0
:1004500042E0660F771F881F991F4A95D1F70895CC
:100460000E945C061F920F920FB60F9211242F93D9
:100470003F934F935F936F937F938F939F93AF932C
:10048000BF93EF93FF9381E291E00E94EF00FF9111
:10049000EF91BF91AF919F918F917F916F915F91FC
:1004A0004F913F912F910F900FBE0F901F90189575
:1004B0001F920F920FB60F9211242F938F939F9339
:1004C000EF93FF93E0913101F09132018081E0914F
:1004D0003701F091380182FD12C0908180913A017C
:1004E0008F5F8F7320913B01821751F0E0913A01A9
:1004F000F0E0EF5DFE4F958F80933A0101C080815F
:10050000FF91EF919F918F912F910F900FBE0F90C0
:100510001F9018951F920F920FB60F9211242F93D0
:100520003F938F939F93AF93BF93809115019091C9
:100530001601A0911701B09118013091140123E028
:10054000230F2D3720F40196A11DB11D05C026E80B
:10055000230F0296A11DB11D209314018093150154
:1005600090931601A0931701B0931801809119017F
:1005700090911A01A0911B01B0911C010196A11D3F
:10058000B11D8093190190931A01A0931B01B093A0
:100590001C01BF91AF919F918F913F912F910F902F
:1005A0000FBE0F901F901895CF92DF92EF92FF929F
:1005B0000F931F93E82FF92F05C00150110921094E
:1005C000310961F1908196239417B9F305C0015068
:1005D00011092109310911F1908196239413F7CF64
:1005E000C12CD12CE12CF12C0AC08FEFC81AD80AEB
:1005F000E80AF80A0C151D052E053F0579F08081E3
:100600008623841791F36C2D7D2D8E2D9F2D1F91A8
:100610000F91FF90EF90DF90CF90089560E070E031
:1006200080E090E01F910F91FF90EF90DF90CF90CE
:100630000895CF93DF93CDB7DEB7A1970FB6F894A7
:10064000DEBF0FBECDBF789484B5826084BD84B513
:10065000816084BD85B5826085BD85B5816085BDBD
:1006600080916E00816080936E0010928100809175
:1006700081008260809381008091810081608093FD
:100680008100809180008160809380008091B10022
:1006900084608093B1008091B00081608093B0004D
:1006A00080917A00846080937A0080917A008260E1
:1006B00080937A0080917A00816080937A008091A3
:1006C0007A00806880937A001092C100E091310135
:1006D000F091320182E08083E0912D01F0912E01B2
:1006E0001082E0912F01F09130018FEC8083109205
:1006F0003901E0913501F091360186E08083E09187
:100700003301F0913401808180618083E091330175
:10071000F0913401808188608083E0913301F09111
:100720003401808180688083E0913301F09134014D
:1007300080818F7D808361E08FE00E94CF0160E047
:1007400080E10E94CF012EEB222E20E0322E3AE0F3
:10075000832E912CA12CB12C61E08FE00E94CF015F
:1007600060E08FE00E94830183E090E00197F1F761
:1007700061E08FE00E94830187E390E00197F1F749
:1007800060E08FE00E94830160E080E10E94CF0181
:1007900061E080E10E948301F1016491EAEAF0E006
:1007A0008491E82FF0E0EE0FFF1FE057FF4F859197
:1007B000949100E412E42FE030E0462F0E94D4022E
:1007C000611571058105910549F0DC01CB010196A8
:1007D000A11DB11D9C01AD015F7003C020E030E0A0
:1007E000A9012093BE013093BF014093C0015093F3
:1007F000C10119A2CE0181963C01CA01B901A5012E
:1008000094010E949804605DF30162933F012115F9
:1008100031054105510589F7309761F001900020BD
:10082000E9F73197AF0146195709B30181E291E029
:100830000E948C0042E050E060E171E081E291E0D2
:100840000E948C006091BE017091BF018091C00137
:100850009091C1010E94610520E53DE848E652E41F
:100860000E94C00424E13EEA47EC5EE30E94EF05EB
:100870000E94320560931D0170931E0180931F0139
:10088000909320010E940B026B017C018AEF482E9D
:10089000512C612C712C0E940B02DC01CB018C19B4
:1008A0009D09AE09BF09883E9340A105B10558F0E6
:1008B000F1E04F1A51086108710828EEC20E23E0DA
:1008C000D21EE11CF11C411451046104710419F79A
:1008D0000E94790141CFE1E2F1E01382128288EEB9
:1008E00093E0A0E0B0E084839583A683B78384E09F
:1008F00091E09183808385EC90E09587848784ECF8
:1009000090E09787868780EC90E0918B808B81ECDC
:1009100090E0938B828B82EC90E0958B848B86ECBD
:1009200090E0978B868B118E128E138E148E089505
:10093000A1E21A2EAA1BBB1BFD010DC0AA1FBB1FE3
:10094000EE1FFF1FA217B307E407F50720F0A21B55
:10095000B30BE40BF50B661F771F881F991F1A94C2
:1009600069F760957095809590959B01AC01BD01EC
:10097000CF010895EE0FFF1F0590F491E02D09942B
:100980000E94D4040C94B5050E94AE0558F00E9454
:10099000A70540F029F45F3F29F00C949E05511102
:1009A0000C94E9050C94A4050E94C60568F39923EC
:1009B000B1F3552391F3951B550BBB27AA2762175B
:1009C0007307840738F09F5F5F4F220F331F441F68
:1009D000AA1FA9F335D00E2E3AF0E0E832D091509C
:1009E0005040E695001CCAF72BD0FE2F29D0660F89
:1009F000771F881FBB1F261737074807AB07B0E8CC
:100A000009F0BB0B802DBF01FF2793585F4F3AF0D1
:100A10009E3F510578F00C949E050C94E9055F3FCC
:100A2000E4F3983ED4F3869577956795B795F79557
:100A30009F5FC9F7880F911D9695879597F908953F
:100A4000E1E0660F771F881FBB1F621773078407DB
:100A5000BA0720F0621B730B840BBA0BEE1F88F7EA
:100A6000E09508950E94CE0588F09F5798F0B92F21
:100A70009927B751B0F0E1F0660F771F881F991FD3
:100A80001AF0BA95C9F714C0B13091F00E94E80588
:100A9000B1E008950C94E805672F782F8827B85F98
:100AA00039F0B93FCCF3869577956795B395D9F72B
:100AB0003EF490958095709561957F4F8F4F9F4F35
:100AC0000895E89409C097FB3EF490958095709541
:100AD00061957F4F8F4F9F4F9923A9F0F92F96E98A
:100AE000BB279395F695879577956795B795F111FF
:100AF000F8CFFAF4BB0F11F460FF1BC06F5F7F4F9C
:100B00008F4F9F4F16C0882311F096E911C07723AD
:100B100021F09EE8872F762F05C0662371F096E8B6
:100B2000862F70E060E02AF09A95660F771F881F85
:100B3000DAF7880F9695879597F9089597F99F6743
:100B400080E870E060E008959FEF80EC0895002455
:100B50000A941616170618060906089500240A9422
:100B600012161306140605060895092E0394000CA8
:100B700011F4882352F0BB0F40F4BF2B11F460FF37
:100B800004C06F5F7F4F8F4F9F4F089557FD905860
:100B9000440F551F59F05F3F71F04795880F97FB41
:100BA000991F61F09F3F79F08795089512161306FB
:100BB0001406551FF2CF4695F1DF08C0161617062A
:100BC0001806991FF1CF869571056105089408955F
:100BD000E894BB2766277727CB0197F908950E94F1
:100BE00002060C94B5050E94A70538F00E94AE05D8
:100BF00020F0952311F00C949E050C94A40511246B
:100C00000C94E9050E94C60570F3959FC1F3950FFA
:100C100050E0551F629FF001729FBB27F00DB11D80
:100C2000639FAA27F00DB11DAA1F649F6627B00D10
:100C3000A11D661F829F2227B00DA11D621F739FF9
:100C4000B00DA11D621F839FA00D611D221F749F07
:100C50003327A00D611D231F849F600D211D822F4E
:100C6000762F6A2F11249F5750409AF0F1F0882375
:100C70004AF0EE0FFF1FBB1F661F771F881F9150A2
:100C80005040A9F79E3F510580F00C949E050C94AE
:100C9000E9055F3FE4F3983ED4F386957795679531
:100CA000B795F795E7959F5FC1F7FE2B880F911DCC
:100CB0009695879597F9089581E090E0F8940C94C3
:060CC0006106F894FFCF6D
:100CC6000000000010018C00D900B700CB005701CE
:040CD6000D0A000003
:107800000C94343C0C94513C0C94513C0C94513CE1
:107810000C94513C0C94513C0C94513C0C94513CB4
:107820000C94513C0C94513C0C94513C0C94513CA4
:107830000C94513C0C94513C0C94513C0C94513C94
:107840000C94513C0C94513C0C94513C0C94513C84
:107850000C94513C0C94513C0C94513C0C94513C74
:107860000C94513C0C94513C11241FBECFEFD8E036
:10787000DEBFCDBF11E0A0E0B1E0ECE9FFE702C060
:1078800005900D92A230B107D9F712E0A2E0B1E065
:1078900001C01D92AD30B107E1F70E942D3D0C945F
:1078A000CC3F0C94003C982F959595959595959582
:1078B000905D8F708A307CF0282F295A8091C0000B
:1078C00085FFFCCF9093C6008091C00085FFFCCF60
:1078D0002093C6000895282F205DF0CF982F809127
:1078E000C00085FFFCCF9093C6000895EF92FF92F1
:1078F0000F931F93EE24FF2487018091C00087FD22
:1079000017C00894E11CF11C011D111D81E4E8164B
:1079100082E4F8068FE0080780E0180770F3E09132
:107920000401F091050109958091C00087FFE9CF1E
:107930008091C6001F910F91FF90EF9008950E94D3
:10794000763C982F8091C00085FFFCCF9093C600B5
:1079500091362CF490330CF09053892F089597555D
:10796000892F08951F930E949F3C182F0E949F3CCF
:107970001295107F810F1F9108951F93182F882350
:1079800021F00E94763C1150E1F71F9108951F935A
:10799000182F0E94763C803249F0809103018F5F5E
:1079A000809303018530C1F01F9108958091C0003C
:1079B00085FFFCCF84E18093C6008091C00085FFE5
:1079C000FCCF1093C6008091C00085FFFCCF80E102
:1079D0008093C6001F910895E0910401F091050184
:1079E00009951F9108950E94763C803241F0809164
:1079F00003018F5F80930301853081F008958091AA
:107A0000C00085FFFCCF84E18093C6008091C00058
:107A100085FFFCCF80E18093C6000895E0910401CA
:107A2000F09105010995089540E951E08823A1F0FE
:107A30002D9A28EE33E0FA013197F1F721503040CA
:107A4000D1F72D9828EE33E0FA013197F1F7215064
:107A50003040D1F7815061F708953F924F925F9285
:107A60006F927F928F929F92AF92BF92CF92DF924E
:107A7000EF92FF920F931F93CF93DF93000080E16B
:107A80008093C4001092C50088E18093C10086E015
:107A90008093C2005098589A259A81E00E94143D24
:107AA00024E1F22E9EE1E92E85E9D82E0FE0C02ECA
:107AB00010E1B12EAA24A394B1E49B2EA6E58A2E50
:107AC000F2E57F2EE0E26E2E79E4572E63E5462E36
:107AD00050E5352E0E94763C8033B1F18133B9F107
:107AE000803409F46FC0813409F476C0823409F41B
:107AF00085C0853409F488C0803531F1823521F1A3
:107B0000813511F1853509F485C0863509F48DC0BC
:107B1000843609F496C0843709F403C1853709F423
:107B200072C1863709F466C0809103018F5F80932C
:107B30000301853079F6E0910401F0910501099582
:107B40000E94763C803351F60E94F33CC3CF0E94E2
:107B5000763C803249F78091C00085FFFCCFF092DF
:107B6000C6008091C00085FFFCCF9092C600809136
:107B7000C00085FFFCCF8092C6008091C00085FFC9
:107B8000FCCF7092C6008091C00085FFFCCF609250
:107B9000C6008091C00085FFFCCF5092C600809146
:107BA000C00085FFFCCF4092C6008091C00085FFD9
:107BB000FCCF3092C6008091C00085FFFCCFB09210
:107BC000C60088CF0E94763C863808F4BDCF0E945C
:107BD000763C0E94F33C7ECF0E94763C803809F4CC
:107BE0009CC0813809F40BC1823809F43CC1883942
:107BF00009F48FC080E00E94C73C6CCF84E10E94F2
:107C0000BD3C0E94F33C66CF85E00E94BD3C0E94D3
:107C1000F33C60CF0E94763C809306010E94763C44
:107C2000809307010E94F33C55CF0E94763C80333D
:107C300009F41DC183E00E94BD3C80E00E94C73C66
:107C400049CF0E94763C809309020E94763C809343
:107C5000080280910C028E7F80930C020E94763C79
:107C6000853409F415C18091080290910902892B8D
:107C700089F000E010E00E94763CF801E85FFE4FDA
:107C800080830F5F1F4F80910802909109020817AF
:107C9000190788F30E94763C803209F045CF809125
:107CA0000C0280FF01C16091060170910701660F0F
:107CB000771F7093070160930601A0910802B091AD
:107CC00009021097C9F0E8E0F1E09B01AD014E0F09
:107CD0005F1FF999FECF32BD21BD819180BDFA9A17
:107CE000F99A2F5F3F4FE417F50799F76A0F7B1F4B
:107CF00070930701609306018091C00085FFFCCF5F
:107D0000F092C6008091C00085FFFCCFB092C60003
:107D1000E1CE83E00E94C73CDDCE82E00E94C73CFA
:107D2000D9CE0E94763C809309020E94763C8093D3
:107D300008028091060190910701880F991F909386
:107D40000701809306010E94763C853409F4A6C0A1
:107D500080910C028E7F80930C020E94763C8032D0
:107D600009F0B8CE8091C00085FFFCCFF092C6002C
:107D7000609108027091090261157105B9F140E046
:107D800050E080910C02A82FA170B82FB27011C0E2
:107D9000BB2309F45CC0E0910601F0910701319624
:107DA000F0930701E09306014F5F5F4F46175707B7
:107DB000E8F4AA2369F3F999FECF209106013091E6
:107DC000070132BD21BDF89A90B58091C00085FFB2
:107DD000FCCF9093C6002F5F3F4F30930701209355
:107DE00006014F5F5F4F4617570718F38091C00099
:107DF00085FDE5CE8091C00085FFF8CFE0CE81E023
:107E00000E94C73C67CE0E94763C803209F08CCE3F
:107E10008091C00085FFFCCFF092C6008091C00029
:107E200085FFFCCFE092C6008091C00085FFFCCFAB
:107E3000D092C6008091C00085FFFCCFC092C600E2
:107E40008091C00085FFFCCFB092C60043CEE09188
:107E50000601F091070194918091C00085FFFCCF4D
:107E60009093C6009CCF80E10E94C73C33CE0E9415
:107E7000763C0E94763C182F0E94763C112309F430
:107E800083C0113009F484C08FE00E94C73C22CE29
:107E900080910C02816080930C02E5CE80910C02EF
:107EA000816080930C0259CF809107018823880F4D
:107EB000880B8A2180930B02809106019091070123
:107EC000880F991F90930701809306018091080203
:107ED00080FF09C080910802909109020196909359
:107EE000090280930802F894F999FECF1127E091D6
:107EF0000601F0910701C8E0D1E08091080290915D
:107F00000902103091F40091570001700130D9F34B
:107F100003E000935700E89500915700017001308D
:107F2000D9F301E100935700E89509901990009169
:107F3000570001700130D9F301E000935700E89534
:107F40001395103498F011270091570001700130FB
:107F5000D9F305E000935700E895009157000170B0
:107F60000130D9F301E100935700E895329602976A
:107F700009F0C7CF103011F00296E5CF112480919F
:107F8000C00085FFB9CEBCCE8EE10E94C73CA2CD19
:0C7F900085E90E94C73C9ECDF894FFCF0D
:027F9C00800063
:040000030000780081
:00000001FF
