:100000000C9463000C948B000C948B000C9496035E
:100010000C9496030C9496030C948B000C948B0018
:100020000C948B000C948B000C948B000C948B0024
:100030000C948B000C948B000C948B000C948B0014
:100040000C944C030C948B000C941A030C94F40243
:100050000C948B000C948B000C948B000C948B00F4
:100060000C948B000C948B0000000008000201002F
:100070000003040700000000000000000000000072
:10008000250028002B0000000000240027002A0083
:1000900000000000230026002900040404040404D6
:1000A0000404020202020202030303030303010227
:1000B00004081020408001020408102001020408F6
:1000C00010201004B20611241FBECFEFD8E0DEBF0F
:1000D000CDBF11E0A0E0B1E0EEEDF2E102C005908D
:1000E0000D92AA34B107D9F722E0AAE4B1E001C029
:1000F0001D92A735B207E1F710E0C2E6D0E004C0D8
:100100002197FE010E94E406C136D107C9F70E947B
:10011000F2040C9462090C9400000895CF92DF92CF
:10012000EF92FF920F931F93CF93DF936C017A01AD
:100130008B01C0E0D0E0CE15DF0589F0D8016D91CC
:100140008D01D601ED91FC910190F081E02DC60169
:100150000995892B11F47E0102C02196ECCFC701CD
:10016000DF91CF911F910F91FF90EF90DF90CF9093
:100170000895FC01918D828D981761F0828DDF01C9
:10018000A80FB11D5D968C91928D9F5F9F73928F8A
:1001900090E008958FEF9FEF0895FC01918D828D7F
:1001A000981731F0828DE80FF11D858D90E008954C
:1001B0008FEF9FEF0895FC01918D228D892F90E0A4
:1001C000805C9F4F821B91098F739927089587E95F
:1001D00091E00E94DB0021E0892B09F420E0822FCE
:1001E0000895FC01848DDF01A80FB11DA35ABF4FF4
:1001F0002C91848D90E001968F739927848FA68926
:10020000B7892C93A089B1898C9180648C93938D4C
:10021000848D981306C00288F389E02D80818F7D3C
:1002200080830895EF92FF920F931F93CF93DF93F4
:10023000EC0181E0888F9B8D8C8D981305C0E88937
:10024000F989808185FD24C0F62E0B8D10E00F5FAB
:100250001F4F0F731127E02E8C8DE8120CC00FB6C4
:1002600007FCFACFE889F989808185FFF5CFCE01B7
:100270000E94F100F1CF8B8DFE01E80FF11DE35AD2
:10028000FF4FF0820B8FEA89FB898081806207C073
:10029000EE89FF896083E889F989808180648083A1
:1002A00081E090E0DF91CF911F910F91FF90EF904F
:1002B0000895CF93DF93EC01888D8823C9F0EA89F4
:1002C000FB89808185FD05C0A889B9898C9186FD4F
:1002D0000FC00FB607FCF5CF808185FFF2CFA8894C
:1002E000B9898C9185FFEDCFCE010E94F100E7CF57
:1002F000DF91CF91089580E090E0892B29F00E9452
:10030000E70081110C940000089590E0FC01E85989
:10031000FF4F3491FC01E255FF4F2491FC01E6565A
:10032000FF4FE491EE2309F43BC0332339F133301E
:1003300091F038F43130A9F0323001F584B58F7D79
:1003400012C0373091F03830A1F03430B9F48091D8
:1003500080008F7D03C0809180008F778093800024
:100360000DC084B58F7784BD09C08091B0008F77B0
:1003700003C08091B0008F7D8093B000F0E0EE0F5D
:10038000FF1FE458FF4FA591B4918FB7F894EC91FB
:10039000611103C020952E2301C02E2B2C938FBFFB
:1003A00008953FB7F89480918F0190919001A091AA
:1003B0009101B091920126B5A89B05C02F3F19F07D
:1003C0000196A11DB11D3FBFBA2FA92F982F8827D5
:1003D000820F911DA11DB11DBC01CD0142E0660F30
:1003E000771F881F991F4A95D1F70895209195018D
:1003F000309196012817390771F4909193018091FB
:100400009401981741F0E0919301F0E0E65BFE4F14
:10041000808190E008958FEF9FEF089508951F93D6
:10042000CF93DF93DC015C962D913C915D97211574
:10043000310539F481E090E013969C938E931297E6
:100440003DC05196ED91FC91529750969C915097DA
:10045000892F80951FB75E964C915E9741FB772759
:1004600070F941FD6095F8944081772311F0492B94
:1004700001C048234083E9012197F1F748E050810A
:1004800060FF02C0592B01C058235083E901219716
:10049000F1F76695415099F7772321F090818923F0
:1004A000808303C08081982B90831FBF5C968D91C1
:1004B0009C915D970197F1F721E030E0C901DF9150
:1004C000CF911F91089520919501309196012817A1
:1004D000390771F4809194012091930190E0805C40
:1004E0009F4F821B910960E470E00E94BC06089552
:1004F00080E090E0089520919501309196012817B1
:100500003907B9F49091930180919401981789F07B
:10051000E0919301F0E0E65BFE4F80812091930132
:1005200030E02F5F3F4F2F7333272093930190E0EC
:1005300008958FEF9FEF0895E0919501F091960156
:10054000E817F90769F4A389B4899C918589809596
:1005500089238C93109296011092950181E0089561
:1005600080E008950E94E108EF92FF920F931F939D
:10057000CF93DF93EC017B018A01888199810097F9
:1005800029F02A813B8124173507F8F4B8016F5F01
:100590007F4F0E941708009759F0998388831B8327
:1005A0000A832C813D81232B81F4FC0110820DC034
:1005B00088819981009711F00E947F071982188223
:1005C0001D821C821B821A8207C01D830C83B70107
:1005D000888199810E94EF08CE01DF91CF911F9110
:1005E0000F91FF90EF9008951F920F920FB60F9208
:1005F00011242F933F934F935F936F937F938F9328
:100600009F93AF93BF93EF93FF9387E991E00E948D
:10061000F100FF91EF91BF91AF919F918F917F91E9
:100620006F915F914F913F912F910F900FBE0F905F
:100630001F9018951F920F920FB60F9211242F93AF
:100640008F939F93EF93FF93E091A701F091A801FF
:100650008081E091AD01F091AE0182FD12C09081E8
:100660008091B0018F5F8F732091B101821751F09B
:10067000E091B001F0E0E956FE4F958F8093B00114
:1006800001C08081FF91EF919F918F912F910F90E9
:100690000FBE0F901F9018951F920F920FB60F92DA
:1006A00011242F933F938F939F93AF93BF93809188
:1006B0008B0190918C01A0918D01B0918E013091B0
:1006C0008A0123E0230F2D3720F40196A11DB11DCF
:1006D00005C026E8230F0296A11DB11D20938A01B3
:1006E00080938B0190938C01A0938D01B0938E0128
:1006F00080918F0190919001A0919101B091920110
:100700000196A11DB11D80938F0190939001A0933C
:100710009101B0939201BF91AF919F918F913F91C1
:100720002F910F900FBE0F901F9018951F920F9250
:100730000FB60F9211242F933F934F935F936F93B4
:100740007F938F939F93AF93BF93EF93FF93E0912A
:100750009501F0919601309709F451C0968DA685C8
:10076000B785858591FF04C09C91892329F447C0F2
:100770009C91892309F043C0A389B4899C91858900
:10078000809589238C93868997890197F1F7608DED
:10079000718DA685B785558538E020E0CB0101979E
:1007A000F1F7822F90E095958795282F4C9145235E
:1007B00009F02068315091F7868D81FD2095809158
:1007C000940190E001968F73992730919301381727
:1007D00049F0A0919401B0E0A65BBE4F2C938093AA
:1007E000940103C0868D8160868F828D938D0197E1
:1007F000F1F7A389B4899C918589892B8C93FF910A
:10080000EF91BF91AF919F918F917F916F915F9188
:100810004F913F912F910F900FBE0F901F90189501
:10082000CF93DF9310929A011092990188EE93E092
:10083000A0E0B0E080939B0190939C01A0939D0168
:10084000B0939E012AE031E0309398012093970104
:1008500025EC30E03093A4012093A30124EC30E098
:100860003093A6012093A50120EC30E03093A8013D
:100870002093A70121EC30E03093AA012093A90135
:1008800022EC30E03093AC012093AB0126EC30E059
:100890003093AE012093AD011092B0011092B101DE
:1008A0001092B2011092B3011092370210923602E8
:1008B0008093380290933902A0933A02B0933B029E
:1008C0008AE191E0909335028093340210924B02BA
:1008D00010924A0210924D0210924C0210924F0256
:1008E00010924E02109251021092500260915202E8
:1008F0006E7F6D7F609352026695617081E068271C
:100900008FE00E948501EDEBF0E02491E9EAF0E050
:100910008491882399F090E0880F991FFC01EA5791
:10092000FF4FA591B491FC01E458FF4F859194913C
:100930008FB7F894EC91E22BEC938FBFEDEBF0E0E6
:10094000E491E0934402E9EAF0E0E491F0E0EE0F94
:10095000FF1FE458FF4F8591949190934602809336
:100960004502EEEBF0E02491EAEAF0E0849188237E
:10097000C1F090E0880F991FFC01EA57FF4FC59125
:10098000D491FC01E458FF4FA591B4919FB7F8941E
:100990008881E22FE0958E2388838C91E823EC9365
:1009A0009FBF8091520281FD04C061E080E10E94FE
:1009B000850180E180934002EEEBF0E0E491E0936A
:1009C0004102EAEAF0E0E491F0E0EE0FFF1FE057A9
:1009D000FF4F859194919093430280934202DF915F
:1009E000CF910895CF93DF93CDB7DEB76E970FB653
:1009F000F894DEBF0FBECDBF789484B5826084BD0D
:100A000084B5816084BD85B5826085BD85B5816012
:100A100085BD80916E00816080936E001092810090
:100A2000809181008260809381008091810081604B
:100A3000809381008091800081608093800080910C
:100A4000B10084608093B1008091B0008160809398
:100A5000B00080917A00846080937A0080917A005F
:100A6000826080937A0080917A00816080937A001E
:100A700080917A00806880937A001092C100E091A2
:100A8000A701F091A80182E08083E091A301F09199
:100A9000A4011082E091A501F091A6018FEC808362
:100AA0001092AF01E091AB01F091AC0186E0808340
:100AB000E091A901F091AA01808180618083E09199
:100AC000A901F091AA01808188608083E091A90149
:100AD000F091AA01808180688083E091A901F09162
:100AE000AA0180818F7D808310924F0210924E0266
:100AF00010924D0210924C0210924B0210924A0238
:100B00008DE991E0909351028093500290914002C0
:100B1000963108F057C02DEB30E030934B02209314
:100B20004A022BE931E030934D0220934C022CE233
:100B300031E030934F0220934E02209168009830AC
:100B400050F031E09E3008F430E081E001C0880FC1
:100B50003A95EAF701C084E0822B809368009830D0
:100B600038F09E3040F0963148F020E030E008C088
:100B70002DE630E005C02BE630E002C02CE630E088
:100B80003093480220934702983030F481E001C04E
:100B9000880F9A95EAF70EC0292F30E09E3018F49E
:100BA0002850310902C02E50310981E001C0880F60
:100BB0002A95EAF780934902809150029091510260
:100BC0000197F1F780914E0290914F02892B21F10C
:100BD000809195019091960122E084339207E1F093
:100BE000009711F00E949C02809152028E7F8093A8
:100BF0005202109294011092930184E392E0909338
:100C0000960180939501E0914702F091480290810E
:100C100080914902892B80838E010F5F1F4F1A8EAE
:100C2000198E1C8E1B8E1E8E1D8E40E050E068E2D9
:100C300071E0CE0149960E94B40284E392E00E94E2
:100C40006302181619060CF04FC084E392E00E946C
:100C50007B021C8A1B8A1E8A1D8A188E1F8A4AE004
:100C6000B8010E94F608F80101900020E9F73197D9
:100C7000AF01401B510BB801CE0143960E94B40254
:100C8000898D9A8D0097A9F06B897C896115710512
:100C900071F04B8D5C8D2F89388D4217530738F0DA
:100CA0000E94EF088F89988D9E8F8D8F12C00E94B1
:100CB0007F078B899C899A8F898F8D899E899C8FCC
:100CC0008B8F8F89988D9E8F8D8F1C8A1B8A1E8A91
:100CD0001D8A188E1F8A8B899C890E947F074D8DE3
:100CE0005E8D698D7A8D04C040E250E069E271E06A
:100CF00087E991E00E948E0042E050E066E271E0F8
:100D000087E991E00E948E000E94D1014B015C01B5
:100D100084EFC82EDD24D394E12CF12C0E94D10164
:100D2000DC01CB0188199909AA09BB09883E9340C7
:100D3000A105B10558F081E0C81AD108E108F10811
:100D400028EE820E23E0921EA11CB11CC114D10416
:100D5000E104F10419F7898D9A8D0E947F070E94A2
:100D60007B015DCF8AE191E090933502809334025C
:100D700084E392E00C949C0297FB072E16F40094F7
:100D800007D077FD09D00E94D00607FC05D03EF4BD
:100D9000909581959F4F0895709561957F4F089527
:100DA000AA1BBB1B51E107C0AA1FBB1FA617B70791
:100DB00010F0A61BB70B881F991F5A95A9F78095AD
:100DC0009095BC01CD010895EE0FFF1F0590F491A1
:100DD000E02D0994CF93DF938230910510F482E0E7
:100DE00090E0E0915502F091560220E030E0C0E042
:100DF000D0E0309711F14081518148175907C0F078
:100E00004817590761F482819381209719F09B83D9
:100E10008A832BC0909356028093550226C02115D9
:100E2000310519F04217530718F49A01BE01DF018A
:100E3000EF010280F381E02DDCCF2115310509F1AE
:100E4000281B390B2430310590F412968D919C911A
:100E500013976115710521F0FB019383828304C010
:100E60009093560280935502FD01329644C0FD01D5
:100E7000E20FF31F81939193225031092D933C93FC
:100E80003AC02091530230915402232B41F4209117
:100E900002013091030130935402209353022091B8
:100EA0000001309101012115310541F42DB73EB704
:100EB0004091040150910501241B350BE091530230
:100EC000F0915402E217F307A0F42E1B3F0B2817F2
:100ED000390778F0AC014E5F5F4F2417350748F0B3
:100EE0004E0F5F1F5093540240935302819391938E
:100EF00002C0E0E0F0E0CF01DF91CF9108950F93C1
:100F00001F93CF93DF93009709F48CC0FC013297B5
:100F1000138212820091550210915602011511059B
:100F200081F420813181820F931F209153023091EF
:100F300054022817390779F5F0935402E0935302CD
:100F400071C0D80140E050E0AE17BF0750F41296D0
:100F50002D913C911397AD012115310509F1D9016E
:100F6000F3CF9D01DA013383228360817181860F83
:100F7000971F8217930769F4EC0128813981260FA6
:100F8000371F2E5F3F4F318320838A819B8193835C
:100F90008283452B29F4F0935602E093550242C018
:100FA0001396FC93EE931297ED01499159919E018E
:100FB000240F351FE217F30771F480819181840FAC
:100FC000951F029611969C938E938281938113961E
:100FD0009C938E931297E0E0F0E0D80112968D91E9
:100FE0009C911397009719F0F8018C01F6CF8D9121
:100FF0009C9198012E5F3F4F820F931F20915302C7
:10100000309154022817390769F4309729F4109267
:1010100056021092550202C013821282109354029B
:1010200000935302DF91CF911F910F910895A0E09B
:10103000B0E0EDE1F8E00C942F09EC01009721F409
:10104000CB010E94EA06B8C0FC01E60FF71F9C0125
:1010500022503109E217F30708F4ACC0D9010D9111
:101060001C91119706171707B0F00530110508F409
:101070009FC0C80104978617970708F499C00250CB
:101080001109061B170B019311936D937C93CF01EC
:101090000E947F078DC05B01A01AB10A4C01800E2F
:1010A000911EA0915502B091560240E050E0E12C13
:1010B000F12C109709F44AC0A815B905D1F56D9027
:1010C0007C901197630182E0C80ED11CCA14DB0426
:1010D00080F1A3014A195B096A0182E0C80ED11CA4
:1010E0001296BC9012971396AC91B5E0CB16D10432
:1010F00040F0B282A38351834083D9016D937C93E6
:101100000AC00E5F1F4FC301800F911FF901918329
:101110008083EB2DFA2FE114F10431F0D7011396FF
:10112000FC93EE93129744C0F0935602E09355025D
:101130003FC08D919C9111974817590708F4AC0155
:101140007D0112960D90BC91A02DB3CF80915302DA
:101150009091540288159905E1F446175707C8F491
:101160008091000190910101009741F48DB79EB7E5
:101170004091040150910501841B950BE817F90774
:10118000C8F4F0935402E0935302F9017183608331
:101190000FC0CB010E94EA067C01009759F0A8011C
:1011A000BE010E94E608CE010E947F07C70104C06D
:1011B000CE0102C080E090E0CDB7DEB7EEE00C9447
:1011C0004B0981E090E0F8940C946209FB01DC018A
:1011D00002C001900D9241505040D8F70895FB0194
:1011E000DC0101900D920020E1F70895BB274A3001
:1011F00031F4992322F4BDE2909581959F4F0C9490
:101200000209BB27FB015527AA27880F991FAA1F90
:10121000A41710F0A41B83955051B9F7A05DAA3311
:1012200008F0A95DA193009779F7B111B1931192DC
:10123000CB010C941B09DC01FC01672F7191772312
:10124000E1F7329704C07C916D9370836291AE1781
:10125000BF07C8F308952F923F924F925F926F920B
:101260007F928F929F92AF92BF92CF92DF92EF9236
:10127000FF920F931F93CF93DF93CDB7DEB7CA1BB7
:10128000DB0B0FB6F894DEBF0FBECDBF09942A88E2
:10129000398848885F846E847D848C849B84AA848A
:1012A000B984C884DF80EE80FD800C811B81AA8117
:1012B000B981CE0FD11D0FB6F894DEBF0FBECDBFE2
:1012C000ED01089510E0C2E6D0E004C0FE010E94E6
:0E12D000E4062196C336D107C9F7F894FFCF84
:1012DE000000570280000000000012018E00DB00AB
:1012EE00B900CD005901000000000F028E0063020C
:1012FE007B02F6010E020D0A004E6965207A6169C5
:10130E006E69636A6F77616C656D20706F7274754C
:0A131E00206D7953657269616C005F
:00000001FF
