:100000000C9463000C948B000C948B000C94B00344
:100010000C94B0030C94B0030C948B000C948B00E4
:100020000C948B000C948B000C948B000C948B0024
:100030000C948B000C948B000C948B000C948B0014
:100040000C9466030C948B000C9434030C940E03F4
:100050000C948B000C948B000C948B000C948B00F4
:100060000C948B000C948B0000000008000201002F
:100070000003040700000000000000000000000072
:10008000250028002B0000000000240027002A0083
:1000900000000000230026002900040404040404D6
:1000A0000404020202020202030303030303010227
:1000B00004081020408001020408102001020408F6
:1000C00010202A04AD0611241FBECFEFD8E0DEBFFA
:1000D000CDBF11E0A0E0B1E0E2E3FEE002C0059098
:1000E0000D92A633B107D9F722E0A6E3B1E001C033
:1000F0001D92A334B207E1F710E0C2E6D0E004C0DD
:100100002197FE010E940107C136D107C9F70E945D
:100110000C050C940C070C94000070E0762F6627F9
:100120009B01280F311DC9010895CF92DF92EF92F4
:10013000FF920F931F93CF93DF936C017A018B0192
:10014000C0E0D0E0CE15DF0589F0D8016D918D01BA
:10015000D601ED91FC910190F081E02DC601099549
:10016000892B11F47E0102C02196ECCFC701DF91EB
:10017000CF911F910F91FF90EF90DF90CF90089556
:10018000FC01918D828D981761F0828DDF01A80F9F
:10019000B11D5D968C91928D9F5F9F73928F90E0C1
:1001A00008958FEF9FEF0895FC01918D828D981730
:1001B00031F0828DE80FF11D858D90E008958FEF6D
:1001C0009FEF0895FC01918D228D892F90E0805C36
:1001D0009F4F821B91098F739927089587E891E0BB
:1001E0000E94E20021E0892B09F420E0822F08958B
:1001F000FC01848DDF01A80FB11DA35ABF4F2C91C4
:10020000848D90E001968F739927848FA689B78992
:100210002C93A089B1898C9180648C93938D848D6B
:10022000981306C00288F389E02D80818F7D80833A
:100230000895EF92FF920F931F93CF93DF93EC01FA
:1002400081E0888F9B8D8C8D981305C0E889F98992
:10025000808185FD24C0F62E0B8D10E00F5F1F4FAF
:100260000F731127E02E8C8DE8120CC00FB607FC1F
:10027000FACFE889F989808185FFF5CFCE010E9408
:10028000F800F1CF8B8DFE01E80FF11DE35AFF4F0F
:10029000F0820B8FEA89FB898081806207C0EE893A
:1002A000FF896083E889F98980818064808381E0A7
:1002B00090E0DF91CF911F910F91FF90EF90089503
:1002C000CF93DF93EC01888D8823C9F0EA89FB89FD
:1002D000808185FD05C0A889B9898C9186FD0FC0F4
:1002E0000FB607FCF5CF808185FFF2CFA889B989C9
:1002F0008C9185FFEDCFCE010E94F800E7CFDF9112
:10030000CF91089580E090E0892B29F00E94EE00C3
:1003100081110C940000089590E0FC01E859FF4F12
:100320003491FC01E255FF4F2491FC01E656FF4F4A
:10033000E491EE2309F43BC0332339F1333091F0DB
:1003400038F43130A9F0323001F584B58F7D12C018
:10035000373091F03830A1F03430B9F4809180001A
:100360008F7D03C0809180008F77809380000DC0C7
:1003700084B58F7784BD09C08091B0008F7703C0AA
:100380008091B0008F7D8093B000F0E0EE0FFF1FF2
:10039000E458FF4FA591B4918FB7F894EC91611197
:1003A00003C020952E2301C02E2B2C938FBF0895C0
:1003B0003FB7F89480917B0190917C01A0917D01E1
:1003C000B0917E0126B5A89B05C02F3F19F001967C
:1003D000A11DB11D3FBFBA2FA92F982F8827820FCB
:1003E000911DA11DB11DBC01CD0142E0660F771F1B
:1003F000881F991F4A95D1F7089520918101309166
:1004000082012817390771F490917F018091800152
:10041000981741F0E0917F01F0E0EA5CFE4F8081A7
:1004200090E008958FEF9FEF089508951F93CF9365
:10043000DF93DC015C962D913C915D972115310590
:1004400039F481E090E013969C938E9312973DC00F
:100450005196ED91FC91529750969C915097892F0F
:1004600080951FB75E964C915E9741FB772770F998
:1004700041FD6095F8944081772311F0492B01C02C
:1004800048234083E9012197F1F748E0508160FF5C
:1004900002C0592B01C058235083E9012197F1F77D
:1004A0006695415099F7772321F0908189238083C5
:1004B00003C08081982B90831FBF5C968D919C9187
:1004C0005D970197F1F721E030E0C901DF91CF910D
:1004D0001F910895209181013091820128173907D9
:1004E00071F48091800120917F0190E0805C9F4FAA
:1004F000821B910960E470E00E94B706089580E0D5
:1005000090E00895209181013091820128173907E8
:10051000B9F490917F0180918001981789F0E09162
:100520007F01F0E0EA5CFE4F808120917F0130E0A6
:100530002F5F3F4F2F73332720937F0190E0089563
:100540008FEF9FEF0895E0918101F0918201E8170C
:10055000F90769F4A389B4899C91858980958923D9
:100560008C93109282011092810181E0089580E0C5
:100570000895009769F0FC0101900020E9F7319798
:10058000AF01481B590BBC0187E891E00C94950022
:1005900080E090E008958F929F92AF92BF920F9368
:1005A0001F93CF93DF93CDB7DEB7A1970FB6F89423
:1005B000DEBF0FBECDBF19A2423008F44AE08E0163
:1005C0000F5D1F4F842E912CA12CB12CA5019401FD
:1005D0000E94CB06E62FB901CA0101501109EA3089
:1005E00014F4E05D01C0E95CD801EC93232B242BCB
:1005F000252B61F7C8010E94B902A1960FB6F894A5
:10060000DEBF0FBECDBFDF91CF911F910F91BF9085
:10061000AF909F908F9008950E9407071F920F92AE
:100620000FB60F9211242F933F934F935F936F93C5
:100630007F938F939F93AF93BF93EF93FF9387E83D
:1006400091E00E94F800FF91EF91BF91AF919F91CF
:100650008F917F916F915F914F913F912F910F906B
:100660000FBE0F901F9018951F920F920FB60F920A
:1006700011242F938F939F93EF93FF93E091970112
:10068000F09198018081E0919D01F0919E0182FDA1
:1006900012C090818091A0018F5F8F732091A10182
:1006A000821751F0E091A001F0E0E957FE4F958FDD
:1006B0008093A00101C08081FF91EF919F918F9164
:1006C0002F910F900FBE0F901F9018951F920F92B1
:1006D0000FB60F9211242F933F938F939F93AF9355
:1006E000BF938091770190917801A0917901B091A9
:1006F0007A013091760123E0230F2D3720F4019603
:10070000A11DB11D05C026E8230F0296A11DB11D34
:10071000209376018093770190937801A0937901DB
:10072000B0937A0180917B0190917C01A0917D0131
:10073000B0917E010196A11DB11D80937B01909324
:100740007C01A0937D01B0937E01BF91AF919F91F9
:100750008F913F912F910F900FBE0F901F90189582
:100760001F920F920FB60F9211242F933F934F9326
:100770005F936F937F938F939F93AF93BF93EF9309
:10078000FF93E0918101F0918201309709F451C00B
:10079000968DA685B785858591FF04C09C91892398
:1007A00029F447C09C91892309F043C0A389B489E7
:1007B0009C918589809589238C9386899789019757
:1007C000F1F7608D718DA685B785558538E020E0FD
:1007D000CB010197F1F7822F90E095958795282F0F
:1007E0004C91452309F02068315091F7868D81FDA9
:1007F00020958091800190E001968F739927309128
:100800007F01381749F0A0918001B0E0AA5CBE4F8B
:100810002C938093800103C0868D8160868F828DAA
:10082000938D0197F1F7A389B4899C918589892BD0
:100830008C93FF91EF91BF91AF919F918F917F9199
:100840006F915F914F913F912F910F900FBE0F903D
:100850001F901895CF93DF9310928A01109289010F
:1008600088EE93E0A0E0B0E080938B0190938C0140
:10087000A0938D01B0938E0124E031E03093880184
:100880002093870125EC30E030939401209393016D
:1008900024EC30E0309396012093950120EC30E079
:1008A000309398012093970121EC30E030939A0126
:1008B0002093990122EC30E030939C0120939B011E
:1008C00026EC30E030939E0120939D011092A00110
:1008D0001092A1011092A2011092A301109227027E
:1008E000109226028093280290932902A0932A0254
:1008F000B0932B0284E191E090932502809324022F
:1009000010923B0210923A0210923D0210923C0269
:1009100010923F0210923E02109241021092400249
:10092000609142026E7F6D7F6093420266956170B6
:1009300081E068278FE00E948C01EDEBF0E02491CC
:10094000E9EAF0E08491882399F090E0880F991FFC
:10095000FC01EA57FF4FA591B491FC01E458FF4F09
:10096000859194918FB7F894EC91E22BEC938FBF23
:10097000EDEBF0E0E491E0933402E9EAF0E0E49199
:10098000F0E0EE0FFF1FE458FF4F85919491909394
:10099000360280933502EEEBF0E02491EAEAF0E0D3
:1009A00084918823C1F090E0880F991FFC01EA57D9
:1009B000FF4FC591D491FC01E458FF4FA591B4912C
:1009C0009FB7F8948881E22FE0958E2388838C91DD
:1009D000E823EC939FBF8091420281FD04C061E057
:1009E00080E10E948C0180E180933002EEEBF0E028
:1009F000E491E0933102EAEAF0E0E491F0E0EE0FF6
:100A0000FF1FE057FF4F859194919093330280939D
:100A10003202DF91CF910895789484B5826084BDCD
:100A200084B5816084BD85B5826085BD85B58160F2
:100A300085BD80916E00816080936E001092810070
:100A4000809181008260809381008091810081602B
:100A500080938100809180008160809380008091EC
:100A6000B10084608093B1008091B0008160809378
:100A7000B00080917A00846080937A0080917A003F
:100A8000826080937A0080917A00816080937A00FE
:100A900080917A00806880937A001092C100E09182
:100AA0009701F091980182E08083E0919301F091A9
:100AB00094011082E0919501F09196018FEC808372
:100AC00010929F01E0919B01F0919C0186E0808350
:100AD000E0919901F0919A01808180618083E09199
:100AE0009901F0919A01808188608083E091990159
:100AF000F0919A01808180688083E0919901F09162
:100B00009A0180818F7D808310923F0210923E0275
:100B100010923D0210923C0210923B0210923A0257
:100B20008DE991E0909341028093400290913002D0
:100B3000963108F057C02DEB30E030933B02209304
:100B40003A022BE931E030933D0220933C022CE243
:100B500031E030933F0220933E02209168009830AC
:100B600050F031E09E3008F430E081E001C0880FA1
:100B70003A95EAF701C084E0822B809368009830B0
:100B800038F09E3040F0963148F020E030E008C068
:100B90002DE630E005C02BE630E002C02CE630E068
:100BA0003093380220933702983030F481E001C04E
:100BB000880F9A95EAF70EC0292F30E09E3018F47E
:100BC0002850310902C02E50310981E001C0880F40
:100BD0002A95EAF780933902809140029091410270
:100BE0000197F1F780913E0290913F02892B21F10C
:100BF000809181019091820122E084329207E1F09C
:100C0000009711F00E94A302809142028E7F809390
:100C100042021092800110927F0184E292E0909350
:100C2000820180938101E0913702F0913802908136
:100C300080913902892B808380E291E00E94B90281
:100C400081E391E00E94B9028DE890E04C01990F98
:100C5000AA08BB0884E292E00E946A0218161906EC
:100C60000CF078C084E292E00E94820280938601B8
:100C7000682F70E080E090E040E10E94CB0284E3C6
:100C800091E00E94B90284E292E00E948202809385
:100C90008501682F70E080E090E040E10E94CB0287
:100CA00084E391E00E94B90284E292E00E94820211
:100CB00080938401682F70E080E090E040E10E9422
:100CC000CB0284E391E00E94B90284E292E00E94A8
:100CD000820280938301682F70E080E090E040E121
:100CE0000E94CB0284E391E00E94B90281E391E08B
:100CF0000E94B90240E1C501B4010E94CB0281E328
:100D000091E00E94B9020E94D8012B013C0184EFBE
:100D1000C82EDD24D394E12CF12C0E94D801DC01F3
:100D2000CB0184199509A609B709883E9340A1050E
:100D3000B10558F081E0C81AD108E108F10828EEA1
:100D4000420E23E0521E611C711CC114D104E10447
:100D5000F10419F70E9482017DCF84E191E0909324
:100D600025028093240284E292E00C94A30297FB74
:100D7000072E16F4009407D077FD09D00E94ED06E7
:100D800007FC05D03EF4909581959F4F089570958E
:100D900061957F4F0895A1E21A2EAA1BBB1BFD018E
:100DA0000DC0AA1FBB1FEE1FFF1FA217B307E4074A
:100DB000F50720F0A21BB30BE40BF50B661F771FA2
:100DC000881F991F1A9469F7609570958095909582
:100DD0009B01AC01BD01CF010895AA1BBB1B51E1D2
:100DE00007C0AA1FBB1FA617B70710F0A61BB70B9B
:100DF000881F991F5A95A9F780959095BC01CD0140
:100E00000895EE0FFF1F0590F491E02D099481E005
:100E100090E0F8940C940C0710E0C2E6D0E004C017
:100E2000FE010E9401072196C336D107C9F7F89445
:020E3000FFCFF2
:100E32000000000019019500E200C000D40060012A
:100E420000000000160295006A028202FD011502EE
:100E520050727A65737A6574656D20736574757006
:060E6200000D0A007C00F7
:00000001FF
